{
  "contractName": "TestContract",
  "abi": [
    {
      "inputs": [
        {
          "internalType": "contract Token",
          "name": "_token",
          "type": "address"
        }
      ],
      "payable": false,
      "stateMutability": "nonpayable",
      "type": "constructor"
    },
    {
      "constant": true,
      "inputs": [],
      "name": "name",
      "outputs": [
        {
          "internalType": "string",
          "name": "",
          "type": "string"
        }
      ],
      "payable": false,
      "stateMutability": "view",
      "type": "function"
    },
    {
      "constant": true,
      "inputs": [],
      "name": "rate",
      "outputs": [
        {
          "internalType": "uint256",
          "name": "",
          "type": "uint256"
        }
      ],
      "payable": false,
      "stateMutability": "view",
      "type": "function"
    },
    {
      "constant": true,
      "inputs": [],
      "name": "token",
      "outputs": [
        {
          "internalType": "contract Token",
          "name": "",
          "type": "address"
        }
      ],
      "payable": false,
      "stateMutability": "view",
      "type": "function"
    },
    {
      "constant": false,
      "inputs": [],
      "name": "buyToken",
      "outputs": [],
      "payable": true,
      "stateMutability": "payable",
      "type": "function"
    }
  ],
  "bytecode": "0x60c060405260046080819052636261627560e01b60a09081526100259160009190610080565b50606460025534801561003757600080fd5b506040516103bd3803806103bd8339818101604052602081101561005a57600080fd5b5051600180546001600160a01b0319166001600160a01b0390921691909117905561011b565b828054600181600116156101000203166002900490600052602060002090601f016020900481019282601f106100c157805160ff19168380011785556100ee565b828001600101855582156100ee579182015b828111156100ee5782518255916020019190600101906100d3565b506100fa9291506100fe565b5090565b61011891905b808211156100fa5760008155600101610104565b90565b6102938061012a6000396000f3fe60806040526004361061003f5760003560e01c806306fdde03146100445780632c4e722e146100ce578063a4821719146100f5578063fc0c546a146100ff575b600080fd5b34801561005057600080fd5b50610059610130565b6040805160208082528351818301528351919283929083019185019080838360005b8381101561009357818101518382015260200161007b565b50505050905090810190601f1680156100c05780820380516001836020036101000a031916815260200191505b509250505060405180910390f35b3480156100da57600080fd5b506100e36101be565b60408051918252519081900360200190f35b6100fd6101c4565b005b34801561010b57600080fd5b5061011461024f565b604080516001600160a01b039092168252519081900360200190f35b6000805460408051602060026001851615610100026000190190941693909304601f810184900484028201840190925281815292918301828280156101b65780601f1061018b576101008083540402835291602001916101b6565b820191906000526020600020905b81548152906001019060200180831161019957829003601f168201915b505050505081565b60025481565b6002546001546040805163a9059cbb60e01b81523360048201523490930260248401819052905190926001600160a01b039092169163a9059cbb9160448083019260209291908290030181600087803b15801561022057600080fd5b505af1158015610234573d6000803e3d6000fd5b505050506040513d602081101561024a57600080fd5b505050565b6001546001600160a01b03168156fea265627a7a72315820e334a19822c3ceddf290475463c315b5a1ec0ad9cbc5bfbabd1db8415af3b06b64736f6c63430005100032",
  "source": "pragma solidity >=0.4.21 <0.7.0;\r\n\r\n//impiort the token contract\r\nimport \"./Token.sol\";\r\n\r\ncontract TestContract {\r\n\r\n    //state variables\r\n    string public name =\"babu\";\r\n\r\n    //create an instance of the token contract\r\n    Token public token;\r\n    uint public rate = 100;\r\n    \r\n//constructor takes the token contract address\r\nconstructor(Token _token) public{\r\n    token = _token;\r\n}\r\n\r\nfunction buyToken() public payable{\r\n    uint tokenAmount = msg.value * rate;\r\n    token.transfer (msg.sender, tokenAmount);\r\n}\r\n\r\n}\r\n",
  "sourcePath": "C:\\_ethereum\\deploy_test_stage1\\contracts\\TestContract.sol",
  "compiler": {
    "name": "solc",
    "version": "0.5.16+commit.9c3226ce.Emscripten.clang"
  },
  "schemaVersion": "3.2.0",
  "updatedAt": "2020-06-18T06:42:15.326Z",
  "networkType": "ethereum",
  "devdoc": {
    "methods": {}
  },
  "userdoc": {
    "methods": {}
  }
}